:10000000B5C0CDC002C3CBC0CAC0C9C086C2C7C0BC
:10001000C6C0C5C0C4C0C3C0C2C0C1C0C0C0BFC0CC
:10002000BEC0BDC0BCC0C6C0C8C0CAC0CCC0CEC0A7
:10003000D0C0D2C0D4C0D6C0D8C0363C40434B4B51
:100040004B4B43403C363636363636363636363609
:100050003636363636363636363636363636363640
:100060003636361E1E3C78AAABABAA782B1E14146B
:100070001923292D3134363636363636363636366D
:100080003636363636363636363636363636363610
:1000900036363B3F42464A4D5052545555555554BD
:1000A00052504D4A46413B3636363636363636366F
:1000B000686A6A6E6E5A50413C3C415A737F82A016
:1000C000A0A0968C8278686855462D1E1E1E1C1BAB
:1000D0000807070707070707080809141E28323C06
:1000E0003C46505A5A646E78828C969BA0A0A4A875
:1000F000A8A9A9ADADADADAFB4B9B9BEC3CBCDD193
:10010000D3D7D3D3D0CDC8C3BEBEB4AAAAA0969627
:100110008C8282787776757271706E6969696161B7
:10012000615F5F5A5A5A5D5F6464696C7070737680
:1001300076787B7B7E808082828282817F7F7D7CDD
:100140007B7A7A78767573706E6C6C6C68686C6CA0
:100150006868686868000000000000465A6E808C7D
:100160008C806E5A463220141420320011241FBE97
:10017000CFEDCDBF10E0A0E6B0E0EEEBF6E002C0C0
:1001800005900D92A836B107D9F710E0A8E6B0E0C7
:1001900001C01D92A936B107E1F767D28EC230CFF8
:1001A0009FEF98BBE82FF0E0EA30F10508F5ED5E2F
:1001B000FF4F099488B381741DC088B38D7D1AC028
:1001C00088B3837117C088B3897114C088B38D78E0
:1001D00011C088B389720EC088B381720BC088B316
:1001E0008D7508C088B3817005C088B3897002C05E
:1001F00088B3837288BB08959091640080916500F4
:10020000981761F0809165008093640010926800F7
:1002100083E090E09093630080936200809162009D
:1002200090916300019790936300809362008091A6
:10023000620090916300009709F055C083E090E060
:100240009093630080936200809168008F5F809339
:10025000680080916800863740F1109268008091B4
:100260006400823051F0833018F48130F1F415C00D
:10027000833059F08430C9F410C082E593E0909344
:1002800063008093620084EB0FC084E190E0909360
:1002900063008093620086E907C082E890E0909353
:1002A0006300809362008AEA86BF80916400843094
:1002B00040F4E0916800F0E0E65CFF4FE491EE5C12
:1002C00006C0E0916800F0E0E055FF4FE4918091B6
:1002D0006800893230F080916800883310F4C0984B
:1002E00001C0C09AECBF08959091640080916500B0
:1002F000981771F0809165008093640010926800F7
:1003000083E090E090936300809362008AEA86BF66
:1003100080916200909163000197909363008093B5
:1003200062008091620090916300009709F03DC0E7
:1003300083E090E090936300809362008091680076
:100340008F5F80936800809168008637D8F01092A4
:1003500068008091660081508093660080916600FD
:10036000882351F484E190E09093630080936200CD
:1003700086E08093660006C086EE90E0909363006E
:1003800080936200E0916800F0E0E65CFF4FE4914A
:10039000EE5C80916800893230F08091680088338B
:1003A00010F4C09801C0C09AECBF08959091640009
:1003B00080916500981799F08091650080936400A2
:1003C0001092680088E090E0909363008093620050
:1003D0008AEA86BF81E0809360001092610080917C
:1003E0006200909163000197909363008093620094
:1003F0008091620090916300009709F03FC088E00F
:1004000090E09093630080936200209168002F5FDA
:100410002093680020916800203130F0109268002D
:1004200090936300809362009091600080916100DE
:10043000913011F48D5F01C08350809361008091F1
:100440006100803118F01092600005C0823018F40D
:1004500091E090936000E0916800F0E0E55AFE4F73
:10046000E491E80F80916800853030F08091680059
:100470008B3010F4C09801C0C09AECBF08959091E1
:100480006400809165009817A9F0809165008093C1
:1004900064001092680083E090E090936300809382
:1004A00062008AEA86BF81E0809360008AE58093DB
:1004B0006100C098809162009091630001979093D1
:1004C00063008093620080916200909163000097C6
:1004D00001F588E790E0909363008093620080913B
:1004E0006000813049F4809161008D5F80936100EC
:1004F0008F3610F01092600080916000882349F4DC
:1005000080916100835080936100863410F41092D2
:100510006000809161008CBF08951F920F920FB60A
:100520000F9211242F933F934F935F936F937F9379
:100530008F939F93AF93BF93EF93FF938091650049
:100540008430C9F0853038F48230A9F0833098F4D3
:10055000813071F410C0863039F0863018F0873061
:1005600039F404C0C1DE08C021DF06C088DF04C042
:1005700088EC90E015DE40DEFF91EF91BF91AF91E6
:100580009F918F917F916F915F914F913F912F91AB
:100590000F900FBE0F901F90189590E02FEF32C074
:1005A00028BBE3EDF0E33197F1F700C00000C798F6
:1005B000E3EDF0E33197F1F700C00000C598E3EDFB
:1005C000F0E33197F1F700C00000C198E3EDF0E3EC
:1005D0003197F1F700C00000C298E3EDF0E33197E6
:1005E000F1F700C00000C398E3EDF0E33197F1F7B5
:1005F00000C00000C498E3EDF0E33197F1F700C0CC
:1006000000009F5F981760F208951F920F920FB637
:100610000F9211242F933F934F935F936F937F9388
:100620008F939F93AF93BF93EF93FF938091650058
:10063000873020F4809165008F5F01C081E0809356
:10064000650080916500ACDDFF91EF91BF91AF91A6
:100650009F918F917F916F915F914F913F912F91DA
:100660000F900FBE0F901F90189511BA939A8D9A04
:100670008FEF87BB85E091DF8091640091DD85B7C6
:10068000886085BF85B78B7F85BF8BB780688BBF40
:100690008AEA86BF83E280BF8AE083BF89B782602F
:1006A00089BF85B78F7A85BF789485B7806285BF0B
:0E06B000889585B78F7D85BFF8CFF894FFCF72
:0806BE00010104000101030029
:00000001FF
